{
  "abi": [
    {
      "inputs": [
        {
          "internalType": "string",
          "name": "",
          "type": "string"
        }
      ],
      "name": "OrderNotValid",
      "type": "error"
    },
    {
      "anonymous": false,
      "inputs": [
        {
          "indexed": true,
          "internalType": "address",
          "name": "owner",
          "type": "address"
        },
        {
          "components": [
            {
              "internalType": "contract IConditionalOrder",
              "name": "handler",
              "type": "address"
            },
            {
              "internalType": "bytes32",
              "name": "salt",
              "type": "bytes32"
            },
            {
              "internalType": "bytes",
              "name": "staticInput",
              "type": "bytes"
            }
          ],
          "indexed": false,
          "internalType": "struct IConditionalOrder.ConditionalOrderParams",
          "name": "params",
          "type": "tuple"
        }
      ],
      "name": "ConditionalOrderCreated",
      "type": "event"
    },
    {
      "inputs": [
        {
          "internalType": "address",
          "name": "",
          "type": "address"
        },
        {
          "internalType": "address",
          "name": "",
          "type": "address"
        },
        {
          "internalType": "bytes32",
          "name": "",
          "type": "bytes32"
        },
        {
          "internalType": "bytes",
          "name": "staticInput",
          "type": "bytes"
        },
        {
          "internalType": "bytes",
          "name": "",
          "type": "bytes"
        }
      ],
      "name": "getTradeableOrder",
      "outputs": [
        {
          "components": [
            {
              "internalType": "contract IERC20",
              "name": "sellToken",
              "type": "address"
            },
            {
              "internalType": "contract IERC20",
              "name": "buyToken",
              "type": "address"
            },
            {
              "internalType": "address",
              "name": "receiver",
              "type": "address"
            },
            {
              "internalType": "uint256",
              "name": "sellAmount",
              "type": "uint256"
            },
            {
              "internalType": "uint256",
              "name": "buyAmount",
              "type": "uint256"
            },
            {
              "internalType": "uint32",
              "name": "validTo",
              "type": "uint32"
            },
            {
              "internalType": "bytes32",
              "name": "appData",
              "type": "bytes32"
            },
            {
              "internalType": "uint256",
              "name": "feeAmount",
              "type": "uint256"
            },
            {
              "internalType": "bytes32",
              "name": "kind",
              "type": "bytes32"
            },
            {
              "internalType": "bool",
              "name": "partiallyFillable",
              "type": "bool"
            },
            {
              "internalType": "bytes32",
              "name": "sellTokenBalance",
              "type": "bytes32"
            },
            {
              "internalType": "bytes32",
              "name": "buyTokenBalance",
              "type": "bytes32"
            }
          ],
          "internalType": "struct GPv2Order.Data",
          "name": "order",
          "type": "tuple"
        }
      ],
      "stateMutability": "view",
      "type": "function"
    },
    {
      "inputs": [
        {
          "internalType": "bytes4",
          "name": "interfaceId",
          "type": "bytes4"
        }
      ],
      "name": "supportsInterface",
      "outputs": [
        {
          "internalType": "bool",
          "name": "",
          "type": "bool"
        }
      ],
      "stateMutability": "view",
      "type": "function"
    },
    {
      "inputs": [
        {
          "internalType": "address",
          "name": "owner",
          "type": "address"
        },
        {
          "internalType": "address",
          "name": "sender",
          "type": "address"
        },
        {
          "internalType": "bytes32",
          "name": "_hash",
          "type": "bytes32"
        },
        {
          "internalType": "bytes32",
          "name": "domainSeparator",
          "type": "bytes32"
        },
        {
          "internalType": "bytes32",
          "name": "ctx",
          "type": "bytes32"
        },
        {
          "internalType": "bytes",
          "name": "staticInput",
          "type": "bytes"
        },
        {
          "internalType": "bytes",
          "name": "offchainInput",
          "type": "bytes"
        },
        {
          "components": [
            {
              "internalType": "contract IERC20",
              "name": "sellToken",
              "type": "address"
            },
            {
              "internalType": "contract IERC20",
              "name": "buyToken",
              "type": "address"
            },
            {
              "internalType": "address",
              "name": "receiver",
              "type": "address"
            },
            {
              "internalType": "uint256",
              "name": "sellAmount",
              "type": "uint256"
            },
            {
              "internalType": "uint256",
              "name": "buyAmount",
              "type": "uint256"
            },
            {
              "internalType": "uint32",
              "name": "validTo",
              "type": "uint32"
            },
            {
              "internalType": "bytes32",
              "name": "appData",
              "type": "bytes32"
            },
            {
              "internalType": "uint256",
              "name": "feeAmount",
              "type": "uint256"
            },
            {
              "internalType": "bytes32",
              "name": "kind",
              "type": "bytes32"
            },
            {
              "internalType": "bool",
              "name": "partiallyFillable",
              "type": "bool"
            },
            {
              "internalType": "bytes32",
              "name": "sellTokenBalance",
              "type": "bytes32"
            },
            {
              "internalType": "bytes32",
              "name": "buyTokenBalance",
              "type": "bytes32"
            }
          ],
          "internalType": "struct GPv2Order.Data",
          "name": "",
          "type": "tuple"
        }
      ],
      "name": "verify",
      "outputs": [],
      "stateMutability": "view",
      "type": "function"
    }
  ],
  "bytecode": {
    "object": "0x608060405234801561001057600080fd5b506115c3806100206000396000f3fe608060405234801561001057600080fd5b50600436106100415760003560e01c806301ffc9a71461004657806314a2a7841461006e578063b8296fc414610083575b600080fd5b610059610054366004610b42565b6100a3565b60405190151581526020015b60405180910390f35b61008161007c366004610c02565b61013c565b005b610096610091366004610cf0565b610259565b6040516100659190610d8f565b60007fffffffff0000000000000000000000000000000000000000000000000000000082167fb8296fc400000000000000000000000000000000000000000000000000000000148061013657507fffffffff0000000000000000000000000000000000000000000000000000000082167f01ffc9a700000000000000000000000000000000000000000000000000000000145b92915050565b600061014d8b8b8989898989610259565b7fffffffffffffffffffffffffffffffffffffffffffffffffffffffffffffffe0810180517fd5a25ba2e97094ad7d83dc28a6572da797d6b3e7fc6663bd93efb789fc17e48982526101a0822091526040517f19010000000000000000000000000000000000000000000000000000000000008152600281018b9052602281019190915260429020909150891461024c57604080518082018252600c81527f696e76616c696420686173680000000000000000000000000000000000000000602082015290517fc8fc27250000000000000000000000000000000000000000000000000000000081526102439190600401610e7d565b60405180910390fd5b5050505050505050505050565b6040805161018081018252600080825260208201819052918101829052606081018290526080810182905260a0810182905260c0810182905260e081018290526101008101829052610120810182905261014081018290526101608101829052906102c68686018761101f565b905060008082610120015173ffffffffffffffffffffffffffffffffffffffff1663feaf968c6040518163ffffffff1660e01b815260040160a060405180830381865afa15801561031b573d6000803e3d6000fd5b505050506040513d601f19601f8201168201806040525081019061033f9190611187565b5093505092505060008084610140015173ffffffffffffffffffffffffffffffffffffffff1663feaf968c6040518163ffffffff1660e01b815260040160a060405180830381865afa158015610399573d6000803e3d6000fd5b505050506040513d601f19601f820116820180604052508101906103bd9190611187565b509350509250506000841380156103d45750600082135b61043d57604080518082018252601481527f6f7261636c6520696e76616c6964207072696365000000000000000000000000602082015290517fc8fc27250000000000000000000000000000000000000000000000000000000081526102439190600401610e7d565b6101a085015161044d9042611206565b831015801561046b57506101a08501516104679042611206565b8110155b6104d457604080518082018252601281527f6f7261636c65207374616c652070726963650000000000000000000000000000602082015290517fc8fc27250000000000000000000000000000000000000000000000000000000081526102439190600401610e7d565b60006104eb866101600151876101800151426107b6565b905061056c8587610120015173ffffffffffffffffffffffffffffffffffffffff1663313ce5676040518163ffffffff1660e01b8152600401602060405180830381865afa158015610541573d6000803e3d6000fd5b505050506040513d601f19601f820116820180604052508101906105659190611219565b6012610aaf565b94506105c28387610140015173ffffffffffffffffffffffffffffffffffffffff1663313ce5676040518163ffffffff1660e01b8152600401602060405180830381865afa158015610541573d6000803e3d6000fd5b925080836105d8670de0b6b3a76400008861123c565b6105e291906112b7565b131561064d57604080518082018252601281527f737472696b65206e6f7420726561636865640000000000000000000000000000602082015290517fc8fc27250000000000000000000000000000000000000000000000000000000081526102439190600401610e7d565b5050505050604051806101800160405280826000015173ffffffffffffffffffffffffffffffffffffffff168152602001826020015173ffffffffffffffffffffffffffffffffffffffff1681526020018260a0015173ffffffffffffffffffffffffffffffffffffffff16815260200182604001518152602001826060015181526020016106e0836101000151610b20565b63ffffffff16815260200182608001518152602001600081526020018260c0015161072b577f6ed88e868af0a1983e3886d5f3e95a2fafbd6c3450bc229e27342283dc429ccc61074d565b7ff3b277728b3fee749481eb3e0b3b48980dbbab78658fc419025cb16eee3467755b81526020018260e00151151581526020017f5a28e9363bb942b639270062aa6bb295f434bcdfc42c97267bf003f272060dc981526020017f5a28e9363bb942b639270062aa6bb295f434bcdfc42c97267bf003f272060dc9815250915050979650505050505050565b600080845111610822576040517f08c379a000000000000000000000000000000000000000000000000000000000815260206004820181905260248201527f78732e6c656e677468206d7573742062652067726561746572207468616e20306044820152606401610243565b600083511161088d576040517f08c379a000000000000000000000000000000000000000000000000000000000815260206004820181905260248201527f79732e6c656e677468206d7573742062652067726561746572207468616e20306044820152606401610243565b82518451146108f8576040517f08c379a000000000000000000000000000000000000000000000000000000000815260206004820152601e60248201527f78732e6c656e677468206d75737420657175616c2079732e6c656e67746800006044820152606401610243565b825160010361092357826000815181106109145761091461131f565b60200260200101519050610aa8565b6000846000815181106109385761093861131f565b602002602001015190506000846000815181106109575761095761131f565b602002602001015190506000866001815181106109765761097661131f565b602002602001015190506000866001815181106109955761099561131f565b6020026020010151905060005b600189516109b09190611206565b811015610a5a5782871315610a5a578881815181106109d1576109d161131f565b602002602001015194508781815181106109ed576109ed61131f565b6020026020010151935088816001610a05919061134e565b81518110610a1557610a1561131f565b6020026020010151925087816001610a2d919061134e565b81518110610a3d57610a3d61131f565b602002602001015191508080610a5290611361565b9150506109a2565b50610a658483611399565b610a6f8588611399565b610a79908361123c565b610a838885611399565b610a8d908661123c565b610a9791906113c0565b610aa191906112b7565b9450505050505b9392505050565b60008160ff168360ff161015610ae857610ac983836113e8565b610ad79060ff16600a611521565b610ae1908561123c565b9050610aa8565b8160ff168360ff161115610b1857610b0082846113e8565b610b0e9060ff16600a611521565b610ae190856112b7565b509192915050565b60008180610b2e814261152d565b610b389190611550565b6101369190611570565b600060208284031215610b5457600080fd5b81357fffffffff0000000000000000000000000000000000000000000000000000000081168114610aa857600080fd5b73ffffffffffffffffffffffffffffffffffffffff81168114610ba657600080fd5b50565b8035610bb481610b84565b919050565b60008083601f840112610bcb57600080fd5b50813567ffffffffffffffff811115610be357600080fd5b602083019150836020828501011115610bfb57600080fd5b9250929050565b6000806000806000806000806000806102608b8d031215610c2257600080fd5b610c2c8b35610b84565b8a35995060208b0135610c3e81610b84565b985060408b0135975060608b0135965060808b0135955060a08b013567ffffffffffffffff80821115610c7057600080fd5b610c7c8e838f01610bb9565b909750955060c08d0135915080821115610c9557600080fd5b50610ca28d828e01610bb9565b9094509250506101808b8d037fffffffffffffffffffffffffffffffffffffffffffffffffffffffffffffff20011215610cdb57600080fd5b60e08b0190509295989b9194979a5092959850565b600080600080600080600060a0888a031215610d0b57600080fd5b8735610d1681610b84565b96506020880135610d2681610b84565b955060408801359450606088013567ffffffffffffffff80821115610d4a57600080fd5b610d568b838c01610bb9565b909650945060808a0135915080821115610d6f57600080fd5b50610d7c8a828b01610bb9565b989b979a50959850939692959293505050565b815173ffffffffffffffffffffffffffffffffffffffff16815261018081016020830151610dd5602084018273ffffffffffffffffffffffffffffffffffffffff169052565b506040830151610dfd604084018273ffffffffffffffffffffffffffffffffffffffff169052565b50606083015160608301526080830151608083015260a0830151610e2960a084018263ffffffff169052565b5060c083015160c083015260e083015160e083015261010080840151818401525061012080840151610e5e8285018215159052565b5050610140838101519083015261016092830151929091019190915290565b600060208083528351808285015260005b81811015610eaa57858101830151858201604001528201610e8e565b5060006040828601015260407fffffffffffffffffffffffffffffffffffffffffffffffffffffffffffffffe0601f8301168501019250505092915050565b7f4e487b7100000000000000000000000000000000000000000000000000000000600052604160045260246000fd5b6040516101c0810167ffffffffffffffff81118282101715610f3c57610f3c610ee9565b60405290565b80358015158114610bb457600080fd5b803563ffffffff81168114610bb457600080fd5b600082601f830112610f7757600080fd5b8135602067ffffffffffffffff80831115610f9457610f94610ee9565b8260051b6040517fffffffffffffffffffffffffffffffffffffffffffffffffffffffffffffffe0603f83011681018181108482111715610fd757610fd7610ee9565b604052938452858101830193838101925087851115610ff557600080fd5b83870191505b8482101561101457813583529183019190830190610ffb565b979650505050505050565b60006020828403121561103157600080fd5b813567ffffffffffffffff8082111561104957600080fd5b908301906101c0828603121561105e57600080fd5b611066610f18565b61106f83610ba9565b815261107d60208401610ba9565b60208201526040830135604082015260608301356060820152608083013560808201526110ac60a08401610ba9565b60a08201526110bd60c08401610f42565b60c08201526110ce60e08401610f42565b60e08201526101006110e1818501610f52565b908201526101206110f3848201610ba9565b90820152610140611105848201610ba9565b90820152610160838101358381111561111d57600080fd5b61112988828701610f66565b828401525050610180808401358381111561114357600080fd5b61114f88828701610f66565b91830191909152506101a09283013592810192909252509392505050565b805169ffffffffffffffffffff81168114610bb457600080fd5b600080600080600060a0868803121561119f57600080fd5b6111a88661116d565b94506020860151935060408601519250606086015191506111cb6080870161116d565b90509295509295909350565b7f4e487b7100000000000000000000000000000000000000000000000000000000600052601160045260246000fd5b81810381811115610136576101366111d7565b60006020828403121561122b57600080fd5b815160ff81168114610aa857600080fd5b808202600082127f800000000000000000000000000000000000000000000000000000000000000084141615611274576112746111d7565b8181058314821517610136576101366111d7565b7f4e487b7100000000000000000000000000000000000000000000000000000000600052601260045260246000fd5b6000826112c6576112c6611288565b7fffffffffffffffffffffffffffffffffffffffffffffffffffffffffffffffff83147f80000000000000000000000000000000000000000000000000000000000000008314161561131a5761131a6111d7565b500590565b7f4e487b7100000000000000000000000000000000000000000000000000000000600052603260045260246000fd5b80820180821115610136576101366111d7565b60007fffffffffffffffffffffffffffffffffffffffffffffffffffffffffffffffff8203611392576113926111d7565b5060010190565b81810360008312801583831316838312821617156113b9576113b96111d7565b5092915050565b80820182811260008312801582168215821617156113e0576113e06111d7565b505092915050565b60ff8281168282160390811115610136576101366111d7565b600181815b8085111561145a57817fffffffffffffffffffffffffffffffffffffffffffffffffffffffffffffffff04821115611440576114406111d7565b8085161561144d57918102915b93841c9390800290611406565b509250929050565b60008261147157506001610136565b8161147e57506000610136565b8160018114611494576002811461149e576114ba565b6001915050610136565b60ff8411156114af576114af6111d7565b50506001821b610136565b5060208310610133831016604e8410600b84101617156114dd575081810a610136565b6114e78383611401565b807fffffffffffffffffffffffffffffffffffffffffffffffffffffffffffffffff04821115611519576115196111d7565b029392505050565b6000610aa88383611462565b600063ffffffff8084168061154457611544611288565b92169190910492915050565b63ffffffff8181168382160280821691908281146113e0576113e06111d7565b63ffffffff8181168382160190808211156113b9576113b96111d756fea2646970667358221220c65cef3ecde03801bef43b151b46900c7a9479e573acfad47aca9ed2689880e364736f6c63430008130033",
    "linkReferences": {}
  },
  "methodIdentifiers": {
    "getTradeableOrder(address,address,bytes32,bytes,bytes)": "b8296fc4",
    "supportsInterface(bytes4)": "01ffc9a7",
    "verify(address,address,bytes32,bytes32,bytes32,bytes,bytes,(address,address,address,uint256,uint256,uint32,bytes32,uint256,bytes32,bool,bytes32,bytes32))": "14a2a784"
  },
  "id": 141
}